:100000000C9434000C9451000C9451000C94510049
:100010000C9453000C9451000C9451000C9451001A
:100020000C9451000C9451000C9451000C9451000C
:100030000C9451000C9451000C9451000C945100FC
:100040000C9451000C9451000C9451000C945100EC
:100050000C9451000C9451000C9451000C945100DC
:100060000C9451000C94510011241FBECFEFD8E026
:10007000DEBFCDBF11E0A0E0B1E0E4EEF2E002C0EF
:1000800005900D92A230B107D9F721E0A2E0B1E0CE
:1000900001C01D92AB30B207E1F70E945C010C94E5
:1000A00070010C9400001F920F920FB60F92112452
:1000B0002F933F934F935F936F937F938F939F9370
:1000C00080910701909108019093030180930201B0
:1000D000209104013091050130930A012093090118
:1000E000349905C0109208011092070106C041E042
:1000F00050E05093080140930701359905C01092D4
:1001000005011092040106C041E050E05093050142
:100110004093040140910701509108014817590785
:1001200041F460910401709105016217730709F4AD
:1001300057C061E06093060141155105C1F460911B
:100140000401709105016115710589F581309105F2
:1001500051F440910001509101014F5F5F4F509366
:100160000101409300012130310509F51AC04130E9
:100170005105B1F56091040170910501613071057F
:1001800009F048C0009751F44091000150910101DD
:100190004F5F5F4F509301014093000121153105DE
:1001A000C9F58091000190910101019715C061305E
:1001B0007105B1F4019749F480910001909101011A
:1001C00001979093010180930001232B49F48091C2
:1001D000000190910101019690930101809300012B
:1001E00080910001909101018F9734F48FE290E0AB
:1001F0009093010180930001809100019091010191
:100200008E389105C4F08DE890E0909301018093C1
:10021000000111C0672B21F7892B49F4809100015F
:100220009091010101979093010180930001213089
:100230003105B1F6CCCF9F918F917F916F915F91F6
:100240004F913F912F910F900FBE0F901F901895D7
:10025000E8E6F0E0808182608083ECE6F0E0808177
:100260008063808384B1866084B988B1806388B9F3
:100270000895E1E8F0E0808188608083808180617A
:100280008083A0E8B0E08C9181608C938C91826037
:100290008C938C9180628C9380818460808382EEC9
:1002A00094E090938900809388008FE290E090938F
:1002B0008B0080938A0008950E9428010E943901D2
:1002C0007894809106018130E1F78091000190914E
:1002D000010190938B0080938A0010920601F1CF68
:0402E000F894FFCFC0
:0202E4002F00E9
:00000001FF
