:100000000C9434000C9446000C9446000C9446006A
:100010000C9448000C9446000C9446000C94460046
:100020000C9446000C9446000C9446000C94460038
:100030000C9446000C9446000C9446000C94460028
:100040000C9446000C9446000C9446000C94460018
:100050000C9446000C9446000C9446000C94460008
:100060000C9446000C94460011241FBECFEFD8E03C
:10007000DEBFCDBF21E0A0E0B1E001C01D92AB30FA
:10008000B207E1F70E9423010C9438010C940000A0
:100090001F920F920FB60F9211242F933F934F93FD
:1000A0005F936F937F938F939F93809107019091BC
:1000B0000801909303018093020120910401309183
:1000C000050130930A0120930901349905C010926B
:1000D00008011092070106C041E050E0509308016A
:1000E00040930701359905C0109205011092040153
:1000F00006C041E050E05093050140930401409157
:100100000701509108014817590741F46091040113
:10011000709105016217730709F468C061E060938C
:10012000060141155105C1F460910401709105016A
:100130006115710589F58130910551F440910001F7
:10014000509101014F5F5F4F5093010140930001B7
:100150002130310509F51AC04130510509F046C07A
:1001600060910401709105016130710579F5009786
:1001700051F440910001509101014F5F5F4F509346
:100180000101409300012115310501F58091000125
:1001900090910101019715C06130710539F5019702
:1001A00049F4809100019091010101979093010120
:1001B00080930001232BD1F48091000190910101E3
:1001C0000196909301018093000110C0672B71F498
:1001D000892B49F48091000190910101019790933E
:1001E0000101809300012130310531F39F918F91FE
:1001F0007F916F915F914F913F912F910F900FBE23
:100200000F901F901895E8E6F0E08081826080836F
:10021000ECE6F0E08081806380838AB1806F8AB9E8
:1002200084B1836084B988B1806388B9089584B546
:10023000836084BD84B5806884BD80E887BD85B552
:10024000856085BD08950E9403010E94170187B54E
:1002500090E09093010180930001789480910601D1
:100260008130E1F78091000187BD10920601F6CF41
:04027000F894FFCF30
:00000001FF
